{
  "contractName": "DexAggregator",
  "abi": [
    {
      "inputs": [],
      "stateMutability": "nonpayable",
      "type": "constructor"
    },
    {
      "inputs": [
        {
          "internalType": "uint256",
          "name": "",
          "type": "uint256"
        }
      ],
      "name": "routers",
      "outputs": [
        {
          "internalType": "contract RouterInterface",
          "name": "",
          "type": "address"
        }
      ],
      "stateMutability": "view",
      "type": "function",
      "constant": true
    },
    {
      "inputs": [
        {
          "internalType": "uint256",
          "name": "wethAmount",
          "type": "uint256"
        }
      ],
      "name": "wethToUSDC",
      "outputs": [],
      "stateMutability": "nonpayable",
      "type": "function"
    },
    {
      "inputs": [
        {
          "internalType": "uint256",
          "name": "usdcAmount",
          "type": "uint256"
        }
      ],
      "name": "usdcToWETH",
      "outputs": [],
      "stateMutability": "nonpayable",
      "type": "function"
    },
    {
      "inputs": [
        {
          "internalType": "address[]",
          "name": "path",
          "type": "address[]"
        },
        {
          "internalType": "uint256",
          "name": "amountIn",
          "type": "uint256"
        }
      ],
      "name": "getHighestAmountOut",
      "outputs": [
        {
          "internalType": "uint256",
          "name": "",
          "type": "uint256"
        },
        {
          "internalType": "uint256",
          "name": "",
          "type": "uint256"
        }
      ],
      "stateMutability": "view",
      "type": "function",
      "constant": true
    },
    {
      "inputs": [
        {
          "internalType": "address[]",
          "name": "path",
          "type": "address[]"
        },
        {
          "internalType": "uint256",
          "name": "amountIn",
          "type": "uint256"
        }
      ],
      "name": "sushiRate",
      "outputs": [
        {
          "internalType": "uint256",
          "name": "",
          "type": "uint256"
        }
      ],
      "stateMutability": "view",
      "type": "function",
      "constant": true
    },
    {
      "inputs": [
        {
          "internalType": "address[]",
          "name": "path",
          "type": "address[]"
        },
        {
          "internalType": "uint256",
          "name": "amountIn",
          "type": "uint256"
        }
      ],
      "name": "uniRate",
      "outputs": [
        {
          "internalType": "uint256",
          "name": "",
          "type": "uint256"
        }
      ],
      "stateMutability": "view",
      "type": "function",
      "constant": true
    }
  ],
  "bytecode": "0x608060405234801561001057600080fd5b5073c02aaa39b223fe8d0a0e5c4f27ead9083c756cc26000806101000a81548173ffffffffffffffffffffffffffffffffffffffff021916908373ffffffffffffffffffffffffffffffffffffffff16021790555073a0b86991c6218b36c1d19d4a2e9eb0ce3606eb48600160006101000a81548173ffffffffffffffffffffffffffffffffffffffff021916908373ffffffffffffffffffffffffffffffffffffffff160217905550737a250d5630b4cf539739df2c5dacb4c659f2488d60026000600281106100e4576100e3610191565b5b0160006101000a81548173ffffffffffffffffffffffffffffffffffffffff021916908373ffffffffffffffffffffffffffffffffffffffff16021790555073d9e1ce17f2641f24ae83637ab66a2cca9c378b9f600260016002811061014d5761014c610191565b5b0160006101000a81548173ffffffffffffffffffffffffffffffffffffffff021916908373ffffffffffffffffffffffffffffffffffffffff1602179055506101c0565b7f4e487b7100000000000000000000000000000000000000000000000000000000600052603260045260246000fd5b611663806101cf6000396000f3fe608060405234801561001057600080fd5b506004361061007f576000357c0100000000000000000000000000000000000000000000000000000000900480631aefc5a5146100845780634e9c1118146100a0578063576c4dcb146100d05780637bb4d13214610100578063acb35b2714610130578063f0bd773f14610161575b600080fd5b61009e600480360381019061009991906110e8565b61017d565b005b6100ba60048036038101906100b591906110e8565b6105aa565b6040516100c7919061124a565b60405180910390f35b6100ea60048036038101906100e59190611016565b6105e0565b6040516100f79190611285565b60405180910390f35b61011a60048036038101906101159190611016565b6106ec565b6040516101279190611285565b60405180910390f35b61014a60048036038101906101459190611016565b6107f8565b6040516101589291906112d0565b60405180910390f35b61017b600480360381019061017691906110e8565b610a5a565b005b6000600160009054906101000a900473ffffffffffffffffffffffffffffffffffffffff1690508073ffffffffffffffffffffffffffffffffffffffff166323b872dd3330856040518463ffffffff167c01000000000000000000000000000000000000000000000000000000000281526004016101fd939291906111ea565b602060405180830381600087803b15801561021757600080fd5b505af115801561022b573d6000803e3d6000fd5b505050506040513d601f19601f8201168201806040525081019061024f91906110bb565b61028e576040517f08c379a000000000000000000000000000000000000000000000000000000000815260040161028590611265565b60405180910390fd5b6000600267ffffffffffffffff8111156102ab576102aa61156b565b5b6040519080825280602002602001820160405280156102d95781602001602082028036833780820191505090505b509050600160009054906101000a900473ffffffffffffffffffffffffffffffffffffffff16816000815181106103135761031261153c565b5b602002602001019073ffffffffffffffffffffffffffffffffffffffff16908173ffffffffffffffffffffffffffffffffffffffff168152505060008054906101000a900473ffffffffffffffffffffffffffffffffffffffff16816001815181106103825761038161153c565b5b602002602001019073ffffffffffffffffffffffffffffffffffffffff16908173ffffffffffffffffffffffffffffffffffffffff16815250506000806103c983866107f8565b915091508373ffffffffffffffffffffffffffffffffffffffff1663095ea7b3600284600281106103fd576103fc61153c565b5b0160009054906101000a900473ffffffffffffffffffffffffffffffffffffffff16876040518363ffffffff167c0100000000000000000000000000000000000000000000000000000000028152600401610459929190611221565b602060405180830381600087803b15801561047357600080fd5b505af1158015610487573d6000803e3d6000fd5b505050506040513d601f19601f820116820180604052508101906104ab91906110bb565b50600282600281106104c0576104bf61153c565b5b0160009054906101000a900473ffffffffffffffffffffffffffffffffffffffff1673ffffffffffffffffffffffffffffffffffffffff166338ed17398683863361012c4261050f919061141a565b6040518663ffffffff167c010000000000000000000000000000000000000000000000000000000002815260040161054b9594939291906112f9565b600060405180830381600087803b15801561056557600080fd5b505af1158015610579573d6000803e3d6000fd5b505050506040513d6000823e3d601f19601f820116820180604052508101906105a29190611072565b505050505050565b600281600281106105ba57600080fd5b016000915054906101000a900473ffffffffffffffffffffffffffffffffffffffff1681565b60008060026001600281106105f8576105f761153c565b5b0160009054906101000a900473ffffffffffffffffffffffffffffffffffffffff1673ffffffffffffffffffffffffffffffffffffffff1663d06ca61f84866040518363ffffffff167c01000000000000000000000000000000000000000000000000000000000281526004016106709291906112a0565b60006040518083038186803b15801561068857600080fd5b505afa15801561069c573d6000803e3d6000fd5b505050506040513d6000823e3d601f19601f820116820180604052508101906106c59190611072565b9050806001815181106106db576106da61153c565b5b602002602001015191505092915050565b60008060026000600281106107045761070361153c565b5b0160009054906101000a900473ffffffffffffffffffffffffffffffffffffffff1673ffffffffffffffffffffffffffffffffffffffff1663d06ca61f84866040518363ffffffff167c010000000000000000000000000000000000000000000000000000000002815260040161077c9291906112a0565b60006040518083038186803b15801561079457600080fd5b505afa1580156107a8573d6000803e3d6000fd5b505050506040513d6000823e3d601f19601f820116820180604052508101906107d19190611072565b9050806001815181106107e7576107e661153c565b5b602002602001015191505092915050565b600080600060026000600281106108125761081161153c565b5b0160009054906101000a900473ffffffffffffffffffffffffffffffffffffffff1673ffffffffffffffffffffffffffffffffffffffff1663d06ca61f85876040518363ffffffff167c010000000000000000000000000000000000000000000000000000000002815260040161088a9291906112a0565b60006040518083038186803b1580156108a257600080fd5b505afa1580156108b6573d6000803e3d6000fd5b505050506040513d6000823e3d601f19601f820116820180604052508101906108df9190611072565b9050600060026001600281106108f8576108f761153c565b5b0160009054906101000a900473ffffffffffffffffffffffffffffffffffffffff1673ffffffffffffffffffffffffffffffffffffffff1663d06ca61f86886040518363ffffffff167c01000000000000000000000000000000000000000000000000000000000281526004016109709291906112a0565b60006040518083038186803b15801561098857600080fd5b505afa15801561099c573d6000803e3d6000fd5b505050506040513d6000823e3d601f19601f820116820180604052508101906109c59190611072565b9050806001815181106109db576109da61153c565b5b6020026020010151826001815181106109f7576109f661153c565b5b60200260200101511115610a2e57600082600181518110610a1b57610a1a61153c565b5b6020026020010151935093505050610a53565b600181600181518110610a4457610a4361153c565b5b60200260200101519350935050505b9250929050565b60008060009054906101000a900473ffffffffffffffffffffffffffffffffffffffff1690508073ffffffffffffffffffffffffffffffffffffffff166323b872dd3330856040518463ffffffff167c0100000000000000000000000000000000000000000000000000000000028152600401610ad9939291906111ea565b602060405180830381600087803b158015610af357600080fd5b505af1158015610b07573d6000803e3d6000fd5b505050506040513d601f19601f82011682018060405250810190610b2b91906110bb565b610b6a576040517f08c379a0000000000000000000000000000000000000000000000000000000008152600401610b6190611265565b60405180910390fd5b6000600267ffffffffffffffff811115610b8757610b8661156b565b5b604051908082528060200260200182016040528015610bb55781602001602082028036833780820191505090505b50905060008054906101000a900473ffffffffffffffffffffffffffffffffffffffff1681600081518110610bed57610bec61153c565b5b602002602001019073ffffffffffffffffffffffffffffffffffffffff16908173ffffffffffffffffffffffffffffffffffffffff1681525050600160009054906101000a900473ffffffffffffffffffffffffffffffffffffffff1681600181518110610c5e57610c5d61153c565b5b602002602001019073ffffffffffffffffffffffffffffffffffffffff16908173ffffffffffffffffffffffffffffffffffffffff1681525050600080610ca583866107f8565b915091508373ffffffffffffffffffffffffffffffffffffffff1663095ea7b360028460028110610cd957610cd861153c565b5b0160009054906101000a900473ffffffffffffffffffffffffffffffffffffffff16876040518363ffffffff167c0100000000000000000000000000000000000000000000000000000000028152600401610d35929190611221565b602060405180830381600087803b158015610d4f57600080fd5b505af1158015610d63573d6000803e3d6000fd5b505050506040513d601f19601f82011682018060405250810190610d8791906110bb565b5060028260028110610d9c57610d9b61153c565b5b0160009054906101000a900473ffffffffffffffffffffffffffffffffffffffff1673ffffffffffffffffffffffffffffffffffffffff166338ed17398683863361012c42610deb919061141a565b6040518663ffffffff167c0100000000000000000000000000000000000000000000000000000000028152600401610e279594939291906112f9565b600060405180830381600087803b158015610e4157600080fd5b505af1158015610e55573d6000803e3d6000fd5b505050506040513d6000823e3d601f19601f82011682018060405250810190610e7e9190611072565b505050505050565b6000610e99610e9484611378565b611353565b90508083825260208201905082856020860282011115610ebc57610ebb61159f565b5b60005b85811015610eec5781610ed28882610f66565b845260208401935060208301925050600181019050610ebf565b5050509392505050565b6000610f09610f04846113a4565b611353565b90508083825260208201905082856020860282011115610f2c57610f2b61159f565b5b60005b85811015610f5c5781610f428882611001565b845260208401935060208301925050600181019050610f2f565b5050509392505050565b600081359050610f75816115e8565b92915050565b600082601f830112610f9057610f8f61159a565b5b8135610fa0848260208601610e86565b91505092915050565b600082601f830112610fbe57610fbd61159a565b5b8151610fce848260208601610ef6565b91505092915050565b600081519050610fe6816115ff565b92915050565b600081359050610ffb81611616565b92915050565b60008151905061101081611616565b92915050565b6000806040838503121561102d5761102c6115a9565b5b600083013567ffffffffffffffff81111561104b5761104a6115a4565b5b61105785828601610f7b565b925050602061106885828601610fec565b9150509250929050565b600060208284031215611088576110876115a9565b5b600082015167ffffffffffffffff8111156110a6576110a56115a4565b5b6110b284828501610fa9565b91505092915050565b6000602082840312156110d1576110d06115a9565b5b60006110df84828501610fd7565b91505092915050565b6000602082840312156110fe576110fd6115a9565b5b600061110c84828501610fec565b91505092915050565b6000611121838361112d565b60208301905092915050565b61113681611470565b82525050565b61114581611470565b82525050565b6000611156826113e0565b61116081856113f8565b935061116b836113d0565b8060005b8381101561119c5781516111838882611115565b975061118e836113eb565b92505060018101905061116f565b5085935050505092915050565b6111b2816114b8565b82525050565b60006111c5601383611409565b91506111d0826115bf565b602082019050919050565b6111e4816114ae565b82525050565b60006060820190506111ff600083018661113c565b61120c602083018561113c565b61121960408301846111db565b949350505050565b6000604082019050611236600083018561113c565b61124360208301846111db565b9392505050565b600060208201905061125f60008301846111a9565b92915050565b6000602082019050818103600083015261127e816111b8565b9050919050565b600060208201905061129a60008301846111db565b92915050565b60006040820190506112b560008301856111db565b81810360208301526112c7818461114b565b90509392505050565b60006040820190506112e560008301856111db565b6112f260208301846111db565b9392505050565b600060a08201905061130e60008301886111db565b61131b60208301876111db565b818103604083015261132d818661114b565b905061133c606083018561113c565b61134960808301846111db565b9695505050505050565b600061135d61136e565b905061136982826114dc565b919050565b6000604051905090565b600067ffffffffffffffff8211156113935761139261156b565b5b602082029050602081019050919050565b600067ffffffffffffffff8211156113bf576113be61156b565b5b602082029050602081019050919050565b6000819050602082019050919050565b600081519050919050565b6000602082019050919050565b600082825260208201905092915050565b600082825260208201905092915050565b6000611425826114ae565b9150611430836114ae565b9250827fffffffffffffffffffffffffffffffffffffffffffffffffffffffffffffffff038211156114655761146461150d565b5b828201905092915050565b600061147b8261148e565b9050919050565b60008115159050919050565b600073ffffffffffffffffffffffffffffffffffffffff82169050919050565b6000819050919050565b60006114c3826114ca565b9050919050565b60006114d58261148e565b9050919050565b6114e5826115ae565b810181811067ffffffffffffffff821117156115045761150361156b565b5b80604052505050565b7f4e487b7100000000000000000000000000000000000000000000000000000000600052601160045260246000fd5b7f4e487b7100000000000000000000000000000000000000000000000000000000600052603260045260246000fd5b7f4e487b7100000000000000000000000000000000000000000000000000000000600052604160045260246000fd5b600080fd5b600080fd5b600080fd5b600080fd5b6000601f19601f8301169050919050565b7f7472616e7366657246726f6d206661696c656400000000000000000000000000600082015250565b6115f181611470565b81146115fc57600080fd5b50565b61160881611482565b811461161357600080fd5b50565b61161f816114ae565b811461162a57600080fd5b5056fea2646970667358221220d9259721538be2c5c25c53eebf553d123acdccddeb9223e0141ee93f038d90a764736f6c63430008060033",
  "immutableReferences": {},
  "source": "pragma solidity 0.8.6;\n\nimport \"./interfaces/RouterInterface.sol\";\nimport \"@openzeppelin/contracts/token/ERC20/IERC20.sol\";\n\n\n\ncontract DexAggregator {\n    address WETH;\n    address USDC;\n\n    RouterInterface[2] public routers;\n\n\n\n\n\n    constructor() {\n        WETH = 0xC02aaA39b223FE8D0A0e5C4F27eAD9083C756Cc2;\n        USDC = 0xA0b86991c6218b36c1d19D4a2e9Eb0cE3606eB48;\n        routers[0] = RouterInterface(0x7a250d5630B4cF539739dF2C5dAcb4c659F2488D); //UNISWAP\n        routers[1] = RouterInterface(0xd9e1cE17f2641f24aE83637ab66a2cca9C378B9F); //SUSHISWAP\n\n\n\n    }\n\n    function wethToUSDC(uint wethAmount) public {\n        IERC20 token = IERC20(WETH);\n\n        require(token.transferFrom(msg.sender, address(this), wethAmount), \"transferFrom failed\");\n\n        address[] memory path = new address[](2);\n        path[0] = WETH;\n        path[1] = USDC;\n\n        (uint routerIndex, uint usdcOut) = getHighestAmountOut(path, wethAmount);\n\n        token.approve(address(routers[routerIndex]), wethAmount);\n\n        routers[routerIndex].swapExactTokensForTokens(wethAmount, usdcOut, path, msg.sender, block.timestamp + 5 minutes);\n\n    }\n\n    function usdcToWETH(uint usdcAmount) public {\n        IERC20 token = IERC20(USDC);\n\n        require(token.transferFrom(msg.sender, address(this), usdcAmount), \"transferFrom failed\");\n\n        address[] memory path = new address[](2);\n        path[0] = USDC;\n        path[1] = WETH;\n\n        (uint routerIndex, uint usdcOut) = getHighestAmountOut(path, usdcAmount);\n\n        token.approve(address(routers[routerIndex]), usdcAmount);\n\n        routers[routerIndex].swapExactTokensForTokens(usdcAmount, usdcOut, path, msg.sender, block.timestamp + 5 minutes);\n\n\n    }\n\n\n    function getHighestAmountOut(address[] memory path, uint amountIn) public view returns(uint, uint) {\n        \n        uint[] memory uni = routers[0].getAmountsOut(amountIn, path);\n        uint[] memory sushi = routers[1].getAmountsOut(amountIn, path);\n\n        if (uni[1] > sushi[1]){\n            return(0, uni[1]);\n        }\n        else {\n            return(1, sushi[1]);\n        }\n\n    }\n\n    function sushiRate(address[] memory path, uint amountIn) public view returns(uint) {\n        uint[] memory sushi = routers[1].getAmountsOut(amountIn, path);\n        return sushi[1];\n    }\n\n    function uniRate(address[] memory path, uint amountIn) public view returns(uint) {\n        uint[] memory uni = routers[0].getAmountsOut(amountIn, path);\n        return uni[1];\n\n    }\n\n\n\n\n\n\n\n\n\n\n\n\n\n\n}",
  "sourcePath": "/Users/nolanjannotta/truffle_tutorials/DexAggregator/contracts/DexAggregator.sol",
  "compiler": {
    "name": "solc",
    "version": "0.8.6+commit.11564f7e.Emscripten.clang"
  },
  "schemaVersion": "3.4.0",
  "updatedAt": "2022-01-14T00:41:02.358Z",
  "networkType": "ethereum",
  "devdoc": {
    "kind": "dev",
    "methods": {},
    "version": 1
  },
  "userdoc": {
    "kind": "user",
    "methods": {},
    "version": 1
  }
}